{
  "contractName": "Diploanch",
  "abi": [
    {
      "constant": true,
      "inputs": [],
      "name": "last_completed_migration",
      "outputs": [
        {
          "internalType": "uint256",
          "name": "",
          "type": "uint256"
        }
      ],
      "payable": false,
      "stateMutability": "view",
      "type": "function"
    },
    {
      "constant": true,
      "inputs": [],
      "name": "owner",
      "outputs": [
        {
          "internalType": "address",
          "name": "",
          "type": "address"
        }
      ],
      "payable": false,
      "stateMutability": "view",
      "type": "function"
    },
    {
      "constant": false,
      "inputs": [
        {
          "internalType": "string",
          "name": "fileHash",
          "type": "string"
        }
      ],
      "name": "addHash",
      "outputs": [
        {
          "internalType": "bool",
          "name": "",
          "type": "bool"
        }
      ],
      "payable": false,
      "stateMutability": "nonpayable",
      "type": "function"
    },
    {
      "constant": true,
      "inputs": [
        {
          "internalType": "string",
          "name": "fileHash",
          "type": "string"
        }
      ],
      "name": "checkHash",
      "outputs": [
        {
          "internalType": "bool",
          "name": "",
          "type": "bool"
        }
      ],
      "payable": false,
      "stateMutability": "view",
      "type": "function"
    },
    {
      "constant": true,
      "inputs": [
        {
          "internalType": "string",
          "name": "a",
          "type": "string"
        },
        {
          "internalType": "string",
          "name": "b",
          "type": "string"
        }
      ],
      "name": "compareStrings",
      "outputs": [
        {
          "internalType": "bool",
          "name": "",
          "type": "bool"
        }
      ],
      "payable": false,
      "stateMutability": "pure",
      "type": "function"
    }
  ],
  "bytecode": "0x608060405234801561001057600080fd5b50610807806100206000396000f3fe608060405234801561001057600080fd5b50600436106100575760003560e01c8063445df0ac1461005c5780638da5cb5b1461007a578063aeb27602146100c4578063bed34bba14610197578063e670f7cd14610301575b600080fd5b6100646103d4565b6040518082815260200191505060405180910390f35b6100826103da565b604051808273ffffffffffffffffffffffffffffffffffffffff1673ffffffffffffffffffffffffffffffffffffffff16815260200191505060405180910390f35b61017d600480360360208110156100da57600080fd5b81019080803590602001906401000000008111156100f757600080fd5b82018360208201111561010957600080fd5b8035906020019184600183028401116401000000008311171561012b57600080fd5b91908080601f016020809104026020016040519081016040528093929190818152602001838380828437600081840152601f19601f8201169050808301925050505050505091929192905050506103ff565b604051808215151515815260200191505060405180910390f35b6102e7600480360360408110156101ad57600080fd5b81019080803590602001906401000000008111156101ca57600080fd5b8201836020820111156101dc57600080fd5b803590602001918460018302840111640100000000831117156101fe57600080fd5b91908080601f016020809104026020016040519081016040528093929190818152602001838380828437600081840152601f19601f8201169050808301925050505050505091929192908035906020019064010000000081111561026157600080fd5b82018360208201111561027357600080fd5b8035906020019184600183028401116401000000008311171561029557600080fd5b91908080601f016020809104026020016040519081016040528093929190818152602001838380828437600081840152601f19601f820116905080830192505050505050509192919290505050610549565b604051808215151515815260200191505060405180910390f35b6103ba6004803603602081101561031757600080fd5b810190808035906020019064010000000081111561033457600080fd5b82018360208201111561034657600080fd5b8035906020019184600183028401116401000000008311171561036857600080fd5b91908080601f016020809104026020016040519081016040528093929190818152602001838380828437600081840152601f19601f820116905080830192505050505050509192919290505050610638565b604051808215151515815260200191505060405180910390f35b60015481565b6000809054906101000a900473ffffffffffffffffffffffffffffffffffffffff1681565b60003073ffffffffffffffffffffffffffffffffffffffff1663e670f7cd836040518263ffffffff1660e01b81526004018080602001828103825283818151815260200191508051906020019080838360005b8381101561046d578082015181840152602081019050610452565b50505050905090810190601f16801561049a5780820380516001836020036101000a031916815260200191505b509250505060206040518083038186803b1580156104b757600080fd5b505afa1580156104cb573d6000803e3d6000fd5b505050506040513d60208110156104e157600080fd5b8101908080519060200190929190505050156105005760009050610544565b600282908060018154018082558091505090600182039060005260206000200160009091929091909150908051906020019061053d92919061072d565b5050600190505b919050565b6000816040516020018082805190602001908083835b60208310610582578051825260208201915060208101905060208303925061055f565b6001836020036101000a03801982511681845116808217855250505050505090500191505060405160208183030381529060405280519060200120836040516020018082805190602001908083835b602083106105f457805182526020820191506020810190506020830392506105d1565b6001836020036101000a0380198251168184511680821785525050505050509050019150506040516020818303038152906040528051906020012014905092915050565b600080600090505b60028054905081101561072257610706836002838154811061065e57fe5b906000526020600020018054600181600116156101000203166002900480601f0160208091040260200160405190810160405280929190818152602001828054600181600116156101000203166002900480156106fc5780601f106106d1576101008083540402835291602001916106fc565b820191906000526020600020905b8154815290600101906020018083116106df57829003601f168201915b5050505050610549565b15610715576001915050610728565b8080600101915050610640565b50600090505b919050565b828054600181600116156101000203166002900490600052602060002090601f016020900481019282601f1061076e57805160ff191683800117855561079c565b8280016001018555821561079c579182015b8281111561079b578251825591602001919060010190610780565b5b5090506107a991906107ad565b5090565b6107cf91905b808211156107cb5760008160009055506001016107b3565b5090565b9056fea265627a7a723158209f27a85472c7ac9b4b3c5a09dcc5dc3bbda208ad80694963696615e45b77d10664736f6c63430005100032",
  "source": "// SPDX-License-Identifier: GNU 3\r\npragma solidity >=0.4.25 <=0.8.4;\r\n\r\ncontract Diploanch {\r\n    address public owner;\r\n    uint public last_completed_migration;\r\n    string[] hashes;\r\n\r\n    modifier restricted() {\r\n        if (msg.sender == owner) _;\r\n    }\r\n\r\n    // constructor() public {\r\n    //   owner = msg.sender;\r\n    // }\r\n\r\n    function addHash(string memory fileHash) public returns (bool) {\r\n        if(this.checkHash(fileHash)){\r\n            return false;\r\n        } else {\r\n            hashes.push(fileHash);\r\n            return true;\r\n        }\r\n    }\r\n\r\n    function checkHash(string memory fileHash) public view returns (bool) {\r\n        for (uint i = 0; i < hashes.length; i++) {\r\n            if (compareStrings(fileHash, hashes[i])) {\r\n                return true;\r\n            }\r\n        }\r\n        return false;\r\n    }\r\n\r\n    function compareStrings(string memory a, string memory b) public pure returns (bool) {\r\n        return (keccak256(abi.encodePacked((a))) == keccak256(abi.encodePacked((b))));\r\n    }\r\n\r\n    // function setCompleted(uint completed) public restricted {\r\n    //     last_completed_migration = completed;\r\n    // }\r\n\r\n    // let instance = await Diploanch.deployed()\r\n    // let check1 = instance.addHash(\"C0F80792B990C9A384AC2609C107CCBB679CCDA4CD09F08B1B0131D2ED7586B8\")\r\n    // let check2 = instance.checkHash(\"C0F80792B990C9A384AC2609C107CCBB679CCDA4CD09F08B1B0131D2ED7586B8\")\r\n}\r\n",
  "sourcePath": "E:/Documents/projets dev/diploma_anchor/contracts/Diploanch.sol",
  "compiler": {
    "name": "solc",
    "version": "0.5.16+commit.9c3226ce.Emscripten.clang"
  },
  "schemaVersion": "3.3.2",
  "updatedAt": "2021-06-11T12:41:06.038Z",
  "networkType": "ethereum",
  "devdoc": {
    "methods": {}
  },
  "userdoc": {
    "methods": {}
  }
}